{
  "_format": "hh-sol-artifact-1",
  "contractName": "TokenStore",
  "sourceName": "src/TokenStore.sol",
  "abi": [
    {
      "inputs": [
        {
          "internalType": "address",
          "name": "_usdt",
          "type": "address"
        },
        {
          "internalType": "address",
          "name": "_gameToken",
          "type": "address"
        },
        {
          "internalType": "uint256",
          "name": "_gtPerUsdt",
          "type": "uint256"
        }
      ],
      "stateMutability": "nonpayable",
      "type": "constructor"
    },
    {
      "anonymous": false,
      "inputs": [
        {
          "indexed": true,
          "internalType": "address",
          "name": "previousOwner",
          "type": "address"
        },
        {
          "indexed": true,
          "internalType": "address",
          "name": "newOwner",
          "type": "address"
        }
      ],
      "name": "OwnershipTransferred",
      "type": "event"
    },
    {
      "anonymous": false,
      "inputs": [
        {
          "indexed": true,
          "internalType": "address",
          "name": "buyer",
          "type": "address"
        },
        {
          "indexed": false,
          "internalType": "uint256",
          "name": "usdtAmount",
          "type": "uint256"
        },
        {
          "indexed": false,
          "internalType": "uint256",
          "name": "gtOut",
          "type": "uint256"
        }
      ],
      "name": "Purchase",
      "type": "event"
    },
    {
      "inputs": [
        {
          "internalType": "uint256",
          "name": "usdtAmount",
          "type": "uint256"
        }
      ],
      "name": "buy",
      "outputs": [],
      "stateMutability": "nonpayable",
      "type": "function"
    },
    {
      "inputs": [],
      "name": "gameToken",
      "outputs": [
        {
          "internalType": "contract GameToken",
          "name": "",
          "type": "address"
        }
      ],
      "stateMutability": "view",
      "type": "function"
    },
    {
      "inputs": [],
      "name": "gtPerUsdt",
      "outputs": [
        {
          "internalType": "uint256",
          "name": "",
          "type": "uint256"
        }
      ],
      "stateMutability": "view",
      "type": "function"
    },
    {
      "inputs": [],
      "name": "owner",
      "outputs": [
        {
          "internalType": "address",
          "name": "",
          "type": "address"
        }
      ],
      "stateMutability": "view",
      "type": "function"
    },
    {
      "inputs": [],
      "name": "renounceOwnership",
      "outputs": [],
      "stateMutability": "nonpayable",
      "type": "function"
    },
    {
      "inputs": [
        {
          "internalType": "address",
          "name": "newOwner",
          "type": "address"
        }
      ],
      "name": "transferOwnership",
      "outputs": [],
      "stateMutability": "nonpayable",
      "type": "function"
    },
    {
      "inputs": [],
      "name": "usdt",
      "outputs": [
        {
          "internalType": "contract IERC20",
          "name": "",
          "type": "address"
        }
      ],
      "stateMutability": "view",
      "type": "function"
    },
    {
      "inputs": [
        {
          "internalType": "address",
          "name": "to",
          "type": "address"
        },
        {
          "internalType": "uint256",
          "name": "amount",
          "type": "uint256"
        }
      ],
      "name": "withdrawUSDT",
      "outputs": [],
      "stateMutability": "nonpayable",
      "type": "function"
    }
  ],
  "bytecode": "0x60806040523480156200001157600080fd5b506040516200135838038062001358833981810160405281019062000037919062000264565b60016000819055506200005f62000053620000f160201b60201c565b620000f960201b60201c565b82600260006101000a81548173ffffffffffffffffffffffffffffffffffffffff021916908373ffffffffffffffffffffffffffffffffffffffff16021790555081600360006101000a81548173ffffffffffffffffffffffffffffffffffffffff021916908373ffffffffffffffffffffffffffffffffffffffff16021790555080600481905550505050620002c0565b600033905090565b6000600160009054906101000a900473ffffffffffffffffffffffffffffffffffffffff16905081600160006101000a81548173ffffffffffffffffffffffffffffffffffffffff021916908373ffffffffffffffffffffffffffffffffffffffff1602179055508173ffffffffffffffffffffffffffffffffffffffff168173ffffffffffffffffffffffffffffffffffffffff167f8be0079c531659141344cd1fd0a4f28419497f9722a3daafe3b4186f6b6457e060405160405180910390a35050565b600080fd5b600073ffffffffffffffffffffffffffffffffffffffff82169050919050565b6000620001f182620001c4565b9050919050565b6200020381620001e4565b81146200020f57600080fd5b50565b6000815190506200022381620001f8565b92915050565b6000819050919050565b6200023e8162000229565b81146200024a57600080fd5b50565b6000815190506200025e8162000233565b92915050565b60008060006060848603121562000280576200027f620001bf565b5b6000620002908682870162000212565b9350506020620002a38682870162000212565b9250506040620002b6868287016200024d565b9150509250925092565b61108880620002d06000396000f3fe608060405234801561001057600080fd5b50600436106100885760003560e01c8063c3dfdae61161005b578063c3dfdae6146100ef578063d96a094a1461010d578063f2fde38b14610129578063f5243bfd1461014557610088565b80631481794e1461008d5780632f48ab7d146100a9578063715018a6146100c75780638da5cb5b146100d1575b600080fd5b6100a760048036038101906100a29190610982565b610163565b005b6100b16103f4565b6040516100be9190610a21565b60405180910390f35b6100cf61041a565b005b6100d961042e565b6040516100e69190610a4b565b60405180910390f35b6100f7610458565b6040516101049190610a87565b60405180910390f35b61012760048036038101906101229190610aa2565b61047e565b005b610143600480360381019061013e9190610acf565b6106bb565b005b61014d61073e565b60405161015a9190610b0b565b60405180910390f35b61016b610744565b6101736107c2565b600073ffffffffffffffffffffffffffffffffffffffff168273ffffffffffffffffffffffffffffffffffffffff16036101e2576040517f08c379a00000000000000000000000000000000000000000000000000000000081526004016101d990610b83565b60405180910390fd5b60008111610225576040517f08c379a000000000000000000000000000000000000000000000000000000000815260040161021c90610bef565b60405180910390fd5b600260009054906101000a900473ffffffffffffffffffffffffffffffffffffffff1673ffffffffffffffffffffffffffffffffffffffff166370a08231306040518263ffffffff1660e01b81526004016102809190610a4b565b602060405180830381865afa15801561029d573d6000803e3d6000fd5b505050506040513d601f19601f820116820180604052508101906102c19190610c24565b811115610303576040517f08c379a00000000000000000000000000000000000000000000000000000000081526004016102fa90610c9d565b60405180910390fd5b6000600260009054906101000a900473ffffffffffffffffffffffffffffffffffffffff1673ffffffffffffffffffffffffffffffffffffffff1663a9059cbb84846040518363ffffffff1660e01b8152600401610362929190610cbd565b6020604051808303816000875af1158015610381573d6000803e3d6000fd5b505050506040513d601f19601f820116820180604052508101906103a59190610d1e565b9050806103e7576040517f08c379a00000000000000000000000000000000000000000000000000000000081526004016103de90610d97565b60405180910390fd5b506103f0610811565b5050565b600260009054906101000a900473ffffffffffffffffffffffffffffffffffffffff1681565b610422610744565b61042c600061081b565b565b6000600160009054906101000a900473ffffffffffffffffffffffffffffffffffffffff16905090565b600360009054906101000a900473ffffffffffffffffffffffffffffffffffffffff1681565b6104866107c2565b600081116104c9576040517f08c379a00000000000000000000000000000000000000000000000000000000081526004016104c090610bef565b60405180910390fd5b6000620f4240600454836104dd9190610de6565b6104e79190610e57565b90506000600260009054906101000a900473ffffffffffffffffffffffffffffffffffffffff1673ffffffffffffffffffffffffffffffffffffffff166323b872dd3330866040518463ffffffff1660e01b815260040161054a93929190610e88565b6020604051808303816000875af1158015610569573d6000803e3d6000fd5b505050506040513d601f19601f8201168201806040525081019061058d9190610d1e565b9050806105cf576040517f08c379a00000000000000000000000000000000000000000000000000000000081526004016105c690610d97565b60405180910390fd5b600360009054906101000a900473ffffffffffffffffffffffffffffffffffffffff1673ffffffffffffffffffffffffffffffffffffffff166340c10f1933846040518363ffffffff1660e01b815260040161062c929190610cbd565b600060405180830381600087803b15801561064657600080fd5b505af115801561065a573d6000803e3d6000fd5b505050503373ffffffffffffffffffffffffffffffffffffffff167f12cb4648cf3058b17ceeb33e579f8b0bc269fe0843f3900b8e24b6c54871703c84846040516106a6929190610ebf565b60405180910390a250506106b8610811565b50565b6106c3610744565b600073ffffffffffffffffffffffffffffffffffffffff168173ffffffffffffffffffffffffffffffffffffffff1603610732576040517f08c379a000000000000000000000000000000000000000000000000000000000815260040161072990610f5a565b60405180910390fd5b61073b8161081b565b50565b60045481565b61074c6108e1565b73ffffffffffffffffffffffffffffffffffffffff1661076a61042e565b73ffffffffffffffffffffffffffffffffffffffff16146107c0576040517f08c379a00000000000000000000000000000000000000000000000000000000081526004016107b790610fc6565b60405180910390fd5b565b600260005403610807576040517f08c379a00000000000000000000000000000000000000000000000000000000081526004016107fe90611032565b60405180910390fd5b6002600081905550565b6001600081905550565b6000600160009054906101000a900473ffffffffffffffffffffffffffffffffffffffff16905081600160006101000a81548173ffffffffffffffffffffffffffffffffffffffff021916908373ffffffffffffffffffffffffffffffffffffffff1602179055508173ffffffffffffffffffffffffffffffffffffffff168173ffffffffffffffffffffffffffffffffffffffff167f8be0079c531659141344cd1fd0a4f28419497f9722a3daafe3b4186f6b6457e060405160405180910390a35050565b600033905090565b600080fd5b600073ffffffffffffffffffffffffffffffffffffffff82169050919050565b6000610919826108ee565b9050919050565b6109298161090e565b811461093457600080fd5b50565b60008135905061094681610920565b92915050565b6000819050919050565b61095f8161094c565b811461096a57600080fd5b50565b60008135905061097c81610956565b92915050565b60008060408385031215610999576109986108e9565b5b60006109a785828601610937565b92505060206109b88582860161096d565b9150509250929050565b6000819050919050565b60006109e76109e26109dd846108ee565b6109c2565b6108ee565b9050919050565b60006109f9826109cc565b9050919050565b6000610a0b826109ee565b9050919050565b610a1b81610a00565b82525050565b6000602082019050610a366000830184610a12565b92915050565b610a458161090e565b82525050565b6000602082019050610a606000830184610a3c565b92915050565b6000610a71826109ee565b9050919050565b610a8181610a66565b82525050565b6000602082019050610a9c6000830184610a78565b92915050565b600060208284031215610ab857610ab76108e9565b5b6000610ac68482850161096d565b91505092915050565b600060208284031215610ae557610ae46108e9565b5b6000610af384828501610937565b91505092915050565b610b058161094c565b82525050565b6000602082019050610b206000830184610afc565b92915050565b600082825260208201905092915050565b7f43616e6e6f7420776974686472617720746f207a65726f206164647265737300600082015250565b6000610b6d601f83610b26565b9150610b7882610b37565b602082019050919050565b60006020820190508181036000830152610b9c81610b60565b9050919050565b7f416d6f756e74206d75737420626520706f736974697665000000000000000000600082015250565b6000610bd9601783610b26565b9150610be482610ba3565b602082019050919050565b60006020820190508181036000830152610c0881610bcc565b9050919050565b600081519050610c1e81610956565b92915050565b600060208284031215610c3a57610c396108e9565b5b6000610c4884828501610c0f565b91505092915050565b7f496e73756666696369656e7420555344542062616c616e636500000000000000600082015250565b6000610c87601983610b26565b9150610c9282610c51565b602082019050919050565b60006020820190508181036000830152610cb681610c7a565b9050919050565b6000604082019050610cd26000830185610a3c565b610cdf6020830184610afc565b9392505050565b60008115159050919050565b610cfb81610ce6565b8114610d0657600080fd5b50565b600081519050610d1881610cf2565b92915050565b600060208284031215610d3457610d336108e9565b5b6000610d4284828501610d09565b91505092915050565b7f55534454207472616e73666572206661696c6564000000000000000000000000600082015250565b6000610d81601483610b26565b9150610d8c82610d4b565b602082019050919050565b60006020820190508181036000830152610db081610d74565b9050919050565b7f4e487b7100000000000000000000000000000000000000000000000000000000600052601160045260246000fd5b6000610df18261094c565b9150610dfc8361094c565b9250828202610e0a8161094c565b91508282048414831517610e2157610e20610db7565b5b5092915050565b7f4e487b7100000000000000000000000000000000000000000000000000000000600052601260045260246000fd5b6000610e628261094c565b9150610e6d8361094c565b925082610e7d57610e7c610e28565b5b828204905092915050565b6000606082019050610e9d6000830186610a3c565b610eaa6020830185610a3c565b610eb76040830184610afc565b949350505050565b6000604082019050610ed46000830185610afc565b610ee16020830184610afc565b9392505050565b7f4f776e61626c653a206e6577206f776e657220697320746865207a65726f206160008201527f6464726573730000000000000000000000000000000000000000000000000000602082015250565b6000610f44602683610b26565b9150610f4f82610ee8565b604082019050919050565b60006020820190508181036000830152610f7381610f37565b9050919050565b7f4f776e61626c653a2063616c6c6572206973206e6f7420746865206f776e6572600082015250565b6000610fb0602083610b26565b9150610fbb82610f7a565b602082019050919050565b60006020820190508181036000830152610fdf81610fa3565b9050919050565b7f5265656e7472616e637947756172643a207265656e7472616e742063616c6c00600082015250565b600061101c601f83610b26565b915061102782610fe6565b602082019050919050565b6000602082019050818103600083015261104b8161100f565b905091905056fea2646970667358221220316f7b52aecb79b30fa77d7cc7c743b39240797ee448388c94df4064a40edcf364736f6c63430008110033",
  "linkReferences": {},
  "deployedLinkReferences": {}
}