{
  "_format": "hh-sol-artifact-1",
  "contractName": "PlayGame",
  "sourceName": "src/PlayGame.sol",
  "abi": [
    {
      "inputs": [
        {
          "internalType": "address",
          "name": "_gameToken",
          "type": "address"
        }
      ],
      "stateMutability": "nonpayable",
      "type": "constructor"
    },
    {
      "anonymous": false,
      "inputs": [
        {
          "indexed": true,
          "internalType": "bytes32",
          "name": "matchId",
          "type": "bytes32"
        },
        {
          "indexed": false,
          "internalType": "address",
          "name": "player1",
          "type": "address"
        },
        {
          "indexed": false,
          "internalType": "address",
          "name": "player2",
          "type": "address"
        },
        {
          "indexed": false,
          "internalType": "uint256",
          "name": "stake",
          "type": "uint256"
        }
      ],
      "name": "MatchCreated",
      "type": "event"
    },
    {
      "anonymous": false,
      "inputs": [
        {
          "indexed": true,
          "internalType": "address",
          "name": "previousOwner",
          "type": "address"
        },
        {
          "indexed": true,
          "internalType": "address",
          "name": "newOwner",
          "type": "address"
        }
      ],
      "name": "OwnershipTransferred",
      "type": "event"
    },
    {
      "anonymous": false,
      "inputs": [
        {
          "indexed": true,
          "internalType": "bytes32",
          "name": "matchId",
          "type": "bytes32"
        },
        {
          "indexed": false,
          "internalType": "address",
          "name": "player1",
          "type": "address"
        },
        {
          "indexed": false,
          "internalType": "address",
          "name": "player2",
          "type": "address"
        },
        {
          "indexed": false,
          "internalType": "uint256",
          "name": "amount",
          "type": "uint256"
        }
      ],
      "name": "Refunded",
      "type": "event"
    },
    {
      "anonymous": false,
      "inputs": [
        {
          "indexed": true,
          "internalType": "bytes32",
          "name": "matchId",
          "type": "bytes32"
        },
        {
          "indexed": false,
          "internalType": "address",
          "name": "winner",
          "type": "address"
        },
        {
          "indexed": false,
          "internalType": "uint256",
          "name": "payout",
          "type": "uint256"
        }
      ],
      "name": "Settled",
      "type": "event"
    },
    {
      "anonymous": false,
      "inputs": [
        {
          "indexed": true,
          "internalType": "bytes32",
          "name": "matchId",
          "type": "bytes32"
        },
        {
          "indexed": false,
          "internalType": "address",
          "name": "player",
          "type": "address"
        },
        {
          "indexed": false,
          "internalType": "uint256",
          "name": "amount",
          "type": "uint256"
        }
      ],
      "name": "Staked",
      "type": "event"
    },
    {
      "inputs": [
        {
          "internalType": "bytes32",
          "name": "matchId",
          "type": "bytes32"
        },
        {
          "internalType": "address",
          "name": "winner",
          "type": "address"
        }
      ],
      "name": "commitResult",
      "outputs": [],
      "stateMutability": "nonpayable",
      "type": "function"
    },
    {
      "inputs": [
        {
          "internalType": "bytes32",
          "name": "matchId",
          "type": "bytes32"
        },
        {
          "internalType": "address",
          "name": "p1",
          "type": "address"
        },
        {
          "internalType": "address",
          "name": "p2",
          "type": "address"
        },
        {
          "internalType": "uint256",
          "name": "stake",
          "type": "uint256"
        }
      ],
      "name": "createMatch",
      "outputs": [],
      "stateMutability": "nonpayable",
      "type": "function"
    },
    {
      "inputs": [],
      "name": "gameToken",
      "outputs": [
        {
          "internalType": "contract IERC20",
          "name": "",
          "type": "address"
        }
      ],
      "stateMutability": "view",
      "type": "function"
    },
    {
      "inputs": [],
      "name": "matchTimeout",
      "outputs": [
        {
          "internalType": "uint256",
          "name": "",
          "type": "uint256"
        }
      ],
      "stateMutability": "view",
      "type": "function"
    },
    {
      "inputs": [
        {
          "internalType": "bytes32",
          "name": "",
          "type": "bytes32"
        }
      ],
      "name": "matches",
      "outputs": [
        {
          "internalType": "address",
          "name": "player1",
          "type": "address"
        },
        {
          "internalType": "address",
          "name": "player2",
          "type": "address"
        },
        {
          "internalType": "uint256",
          "name": "stake",
          "type": "uint256"
        },
        {
          "internalType": "enum PlayGame.MatchStatus",
          "name": "status",
          "type": "uint8"
        },
        {
          "internalType": "uint256",
          "name": "startTime",
          "type": "uint256"
        },
        {
          "internalType": "bool",
          "name": "player1Staked",
          "type": "bool"
        },
        {
          "internalType": "bool",
          "name": "player2Staked",
          "type": "bool"
        }
      ],
      "stateMutability": "view",
      "type": "function"
    },
    {
      "inputs": [],
      "name": "operator",
      "outputs": [
        {
          "internalType": "address",
          "name": "",
          "type": "address"
        }
      ],
      "stateMutability": "view",
      "type": "function"
    },
    {
      "inputs": [],
      "name": "owner",
      "outputs": [
        {
          "internalType": "address",
          "name": "",
          "type": "address"
        }
      ],
      "stateMutability": "view",
      "type": "function"
    },
    {
      "inputs": [
        {
          "internalType": "bytes32",
          "name": "matchId",
          "type": "bytes32"
        }
      ],
      "name": "refund",
      "outputs": [],
      "stateMutability": "nonpayable",
      "type": "function"
    },
    {
      "inputs": [],
      "name": "renounceOwnership",
      "outputs": [],
      "stateMutability": "nonpayable",
      "type": "function"
    },
    {
      "inputs": [
        {
          "internalType": "uint256",
          "name": "_timeout",
          "type": "uint256"
        }
      ],
      "name": "setMatchTimeout",
      "outputs": [],
      "stateMutability": "nonpayable",
      "type": "function"
    },
    {
      "inputs": [
        {
          "internalType": "address",
          "name": "_operator",
          "type": "address"
        }
      ],
      "name": "setOperator",
      "outputs": [],
      "stateMutability": "nonpayable",
      "type": "function"
    },
    {
      "inputs": [
        {
          "internalType": "bytes32",
          "name": "matchId",
          "type": "bytes32"
        }
      ],
      "name": "stake",
      "outputs": [],
      "stateMutability": "nonpayable",
      "type": "function"
    },
    {
      "inputs": [
        {
          "internalType": "address",
          "name": "newOwner",
          "type": "address"
        }
      ],
      "name": "transferOwnership",
      "outputs": [],
      "stateMutability": "nonpayable",
      "type": "function"
    }
  ],
  "bytecode": "0x6080604052620151806004553480156200001857600080fd5b50604051620027253803806200272583398181016040528101906200003e919062000227565b6001600081905550620000666200005a620000ef60201b60201c565b620000f760201b60201c565b80600260006101000a81548173ffffffffffffffffffffffffffffffffffffffff021916908373ffffffffffffffffffffffffffffffffffffffff16021790555033600360006101000a81548173ffffffffffffffffffffffffffffffffffffffff021916908373ffffffffffffffffffffffffffffffffffffffff1602179055505062000259565b600033905090565b6000600160009054906101000a900473ffffffffffffffffffffffffffffffffffffffff16905081600160006101000a81548173ffffffffffffffffffffffffffffffffffffffff021916908373ffffffffffffffffffffffffffffffffffffffff1602179055508173ffffffffffffffffffffffffffffffffffffffff168173ffffffffffffffffffffffffffffffffffffffff167f8be0079c531659141344cd1fd0a4f28419497f9722a3daafe3b4186f6b6457e060405160405180910390a35050565b600080fd5b600073ffffffffffffffffffffffffffffffffffffffff82169050919050565b6000620001ef82620001c2565b9050919050565b6200020181620001e2565b81146200020d57600080fd5b50565b6000815190506200022181620001f6565b92915050565b60006020828403121562000240576200023f620001bd565b5b6000620002508482850162000210565b91505092915050565b6124bc80620002696000396000f3fe608060405234801561001057600080fd5b50600436106100cf5760003560e01c80637249fbb61161008c578063b3ab15fb11610066578063b3ab15fb146101de578063c0d64a87146101fa578063c3dfdae614610216578063f2fde38b14610234576100cf565b80637249fbb61461016e5780638da5cb5b1461018a5780639fe9ada3146101a8576100cf565b80631368711e146100d45780631899a279146100f2578063270ab7f51461010e5780633acb37001461012a578063570ca73514610146578063715018a614610164575b600080fd5b6100dc610250565b6040516100e9919061173a565b60405180910390f35b61010c60048036038101906101079190611786565b610256565b005b61012860048036038101906101239190611847565b610268565b005b610144600480360381019061013f9190611887565b610627565b005b61014e610abb565b60405161015b91906118fd565b60405180910390f35b61016c610ae1565b005b61018860048036038101906101839190611918565b610af5565b005b610192610eea565b60405161019f91906118fd565b60405180910390f35b6101c260048036038101906101bd9190611918565b610f14565b6040516101d597969594939291906119d7565b60405180910390f35b6101f860048036038101906101f39190611a46565b610fbd565b005b610214600480360381019061020f9190611918565b611078565b005b61021e6114d3565b60405161022b9190611ad2565b60405180910390f35b61024e60048036038101906102499190611a46565b6114f9565b005b60045481565b61025e61157c565b8060048190555050565b600360009054906101000a900473ffffffffffffffffffffffffffffffffffffffff1673ffffffffffffffffffffffffffffffffffffffff163373ffffffffffffffffffffffffffffffffffffffff1614806102f657506102c7610eea565b73ffffffffffffffffffffffffffffffffffffffff163373ffffffffffffffffffffffffffffffffffffffff16145b610335576040517f08c379a000000000000000000000000000000000000000000000000000000000815260040161032c90611b4a565b60405180910390fd5b61033d6115fa565b60006005600084815260200190815260200160002090506001600381111561036857610367611945565b5b8160030160009054906101000a900460ff16600381111561038c5761038b611945565b5b146103cc576040517f08c379a00000000000000000000000000000000000000000000000000000000081526004016103c390611bb6565b60405180910390fd5b8060000160009054906101000a900473ffffffffffffffffffffffffffffffffffffffff1673ffffffffffffffffffffffffffffffffffffffff168273ffffffffffffffffffffffffffffffffffffffff16148061047957508060010160009054906101000a900473ffffffffffffffffffffffffffffffffffffffff1673ffffffffffffffffffffffffffffffffffffffff168273ffffffffffffffffffffffffffffffffffffffff16145b6104b8576040517f08c379a00000000000000000000000000000000000000000000000000000000081526004016104af90611c22565b60405180910390fd5b6000600282600201546104cb9190611c71565b905060028260030160006101000a81548160ff021916908360038111156104f5576104f4611945565b5b02179055506000600260009054906101000a900473ffffffffffffffffffffffffffffffffffffffff1673ffffffffffffffffffffffffffffffffffffffff1663a9059cbb85846040518363ffffffff1660e01b8152600401610559929190611cb3565b6020604051808303816000875af1158015610578573d6000803e3d6000fd5b505050506040513d601f19601f8201168201806040525081019061059c9190611d08565b9050806105de576040517f08c379a00000000000000000000000000000000000000000000000000000000081526004016105d590611d81565b60405180910390fd5b847f16cfaad9ef877ffdcfedd9eae2009b4d27454094546f8fab5fbb10129037afc88584604051610610929190611cb3565b60405180910390a2505050610623611649565b5050565b600360009054906101000a900473ffffffffffffffffffffffffffffffffffffffff1673ffffffffffffffffffffffffffffffffffffffff163373ffffffffffffffffffffffffffffffffffffffff1614806106b55750610686610eea565b73ffffffffffffffffffffffffffffffffffffffff163373ffffffffffffffffffffffffffffffffffffffff16145b6106f4576040517f08c379a00000000000000000000000000000000000000000000000000000000081526004016106eb90611b4a565b60405180910390fd5b600073ffffffffffffffffffffffffffffffffffffffff168373ffffffffffffffffffffffffffffffffffffffff161415801561075e5750600073ffffffffffffffffffffffffffffffffffffffff168273ffffffffffffffffffffffffffffffffffffffff1614155b61079d576040517f08c379a000000000000000000000000000000000000000000000000000000000815260040161079490611ded565b60405180910390fd5b8173ffffffffffffffffffffffffffffffffffffffff168373ffffffffffffffffffffffffffffffffffffffff160361080b576040517f08c379a000000000000000000000000000000000000000000000000000000000815260040161080290611e59565b60405180910390fd5b6000811161084e576040517f08c379a000000000000000000000000000000000000000000000000000000000815260040161084590611ec5565b60405180910390fd5b6000600381111561086257610861611945565b5b6005600086815260200190815260200160002060030160009054906101000a900460ff16600381111561089857610897611945565b5b146108d8576040517f08c379a00000000000000000000000000000000000000000000000000000000081526004016108cf90611f31565b60405180910390fd5b6040518060e001604052808473ffffffffffffffffffffffffffffffffffffffff1681526020018373ffffffffffffffffffffffffffffffffffffffff1681526020018281526020016000600381111561093557610934611945565b5b815260200160008152602001600015158152602001600015158152506005600086815260200190815260200160002060008201518160000160006101000a81548173ffffffffffffffffffffffffffffffffffffffff021916908373ffffffffffffffffffffffffffffffffffffffff16021790555060208201518160010160006101000a81548173ffffffffffffffffffffffffffffffffffffffff021916908373ffffffffffffffffffffffffffffffffffffffff1602179055506040820151816002015560608201518160030160006101000a81548160ff02191690836003811115610a2757610a26611945565b5b02179055506080820151816004015560a08201518160050160006101000a81548160ff02191690831515021790555060c08201518160050160016101000a81548160ff021916908315150217905550905050837f4becde1621d018f3c4630cadb81bbd72061cd951ebaab5e8b10d5b2fecfa49ce848484604051610aad93929190611f51565b60405180910390a250505050565b600360009054906101000a900473ffffffffffffffffffffffffffffffffffffffff1681565b610ae961157c565b610af36000611653565b565b610afd6115fa565b600060056000838152602001908152602001600020905060016003811115610b2857610b27611945565b5b8160030160009054906101000a900460ff166003811115610b4c57610b4b611945565b5b14610b8c576040517f08c379a0000000000000000000000000000000000000000000000000000000008152600401610b8390611bb6565b60405180910390fd5b6004548160040154610b9e9190611f88565b4211610bdf576040517f08c379a0000000000000000000000000000000000000000000000000000000008152600401610bd690612008565b60405180910390fd5b60038160030160006101000a81548160ff02191690836003811115610c0757610c06611945565b5b02179055508060050160009054906101000a900460ff1615610d31576000600260009054906101000a900473ffffffffffffffffffffffffffffffffffffffff1673ffffffffffffffffffffffffffffffffffffffff1663a9059cbb8360000160009054906101000a900473ffffffffffffffffffffffffffffffffffffffff1684600201546040518363ffffffff1660e01b8152600401610caa929190611cb3565b6020604051808303816000875af1158015610cc9573d6000803e3d6000fd5b505050506040513d601f19601f82011682018060405250810190610ced9190611d08565b905080610d2f576040517f08c379a0000000000000000000000000000000000000000000000000000000008152600401610d2690612074565b60405180910390fd5b505b8060050160019054906101000a900460ff1615610e56576000600260009054906101000a900473ffffffffffffffffffffffffffffffffffffffff1673ffffffffffffffffffffffffffffffffffffffff1663a9059cbb8360010160009054906101000a900473ffffffffffffffffffffffffffffffffffffffff1684600201546040518363ffffffff1660e01b8152600401610dcf929190611cb3565b6020604051808303816000875af1158015610dee573d6000803e3d6000fd5b505050506040513d601f19601f82011682018060405250810190610e129190611d08565b905080610e54576040517f08c379a0000000000000000000000000000000000000000000000000000000008152600401610e4b906120e0565b60405180910390fd5b505b817f2e0668a62a5f556368dca9c7113e20f2852c05155548243804bf714ce72b25a68260000160009054906101000a900473ffffffffffffffffffffffffffffffffffffffff168360010160009054906101000a900473ffffffffffffffffffffffffffffffffffffffff168460020154604051610ed693929190611f51565b60405180910390a250610ee7611649565b50565b6000600160009054906101000a900473ffffffffffffffffffffffffffffffffffffffff16905090565b60056020528060005260406000206000915090508060000160009054906101000a900473ffffffffffffffffffffffffffffffffffffffff16908060010160009054906101000a900473ffffffffffffffffffffffffffffffffffffffff16908060020154908060030160009054906101000a900460ff16908060040154908060050160009054906101000a900460ff16908060050160019054906101000a900460ff16905087565b610fc561157c565b600073ffffffffffffffffffffffffffffffffffffffff168173ffffffffffffffffffffffffffffffffffffffff1603611034576040517f08c379a000000000000000000000000000000000000000000000000000000000815260040161102b9061214c565b60405180910390fd5b80600360006101000a81548173ffffffffffffffffffffffffffffffffffffffff021916908373ffffffffffffffffffffffffffffffffffffffff16021790555050565b6110806115fa565b6000600560008381526020019081526020016000209050600060038111156110ab576110aa611945565b5b8160030160009054906101000a900460ff1660038111156110cf576110ce611945565b5b1461110f576040517f08c379a0000000000000000000000000000000000000000000000000000000008152600401611106906121b8565b60405180910390fd5b8060000160009054906101000a900473ffffffffffffffffffffffffffffffffffffffff1673ffffffffffffffffffffffffffffffffffffffff163373ffffffffffffffffffffffffffffffffffffffff1614806111bc57508060010160009054906101000a900473ffffffffffffffffffffffffffffffffffffffff1673ffffffffffffffffffffffffffffffffffffffff163373ffffffffffffffffffffffffffffffffffffffff16145b6111fb576040517f08c379a00000000000000000000000000000000000000000000000000000000081526004016111f290612224565b60405180910390fd5b8060000160009054906101000a900473ffffffffffffffffffffffffffffffffffffffff1673ffffffffffffffffffffffffffffffffffffffff163373ffffffffffffffffffffffffffffffffffffffff16036112c6578060050160009054906101000a900460ff16156112a4576040517f08c379a000000000000000000000000000000000000000000000000000000000815260040161129b90612290565b60405180910390fd5b60018160050160006101000a81548160ff021916908315150217905550611336565b8060050160019054906101000a900460ff1615611318576040517f08c379a000000000000000000000000000000000000000000000000000000000815260040161130f906122fc565b60405180910390fd5b60018160050160016101000a81548160ff0219169083151502179055505b6000600260009054906101000a900473ffffffffffffffffffffffffffffffffffffffff1673ffffffffffffffffffffffffffffffffffffffff166323b872dd333085600201546040518463ffffffff1660e01b815260040161139b93929190611f51565b6020604051808303816000875af11580156113ba573d6000803e3d6000fd5b505050506040513d601f19601f820116820180604052508101906113de9190611d08565b905080611420576040517f08c379a000000000000000000000000000000000000000000000000000000000815260040161141790611d81565b60405180910390fd5b827f33d3d5394940f875165e970f73650b86770fcee50f641313bb760de473fb601f338460020154604051611456929190611cb3565b60405180910390a28160050160009054906101000a900460ff16801561148a57508160050160019054906101000a900460ff165b156114c65760018260030160006101000a81548160ff021916908360038111156114b7576114b6611945565b5b02179055504282600401819055505b50506114d0611649565b50565b600260009054906101000a900473ffffffffffffffffffffffffffffffffffffffff1681565b61150161157c565b600073ffffffffffffffffffffffffffffffffffffffff168173ffffffffffffffffffffffffffffffffffffffff1603611570576040517f08c379a00000000000000000000000000000000000000000000000000000000081526004016115679061238e565b60405180910390fd5b61157981611653565b50565b611584611719565b73ffffffffffffffffffffffffffffffffffffffff166115a2610eea565b73ffffffffffffffffffffffffffffffffffffffff16146115f8576040517f08c379a00000000000000000000000000000000000000000000000000000000081526004016115ef906123fa565b60405180910390fd5b565b60026000540361163f576040517f08c379a000000000000000000000000000000000000000000000000000000000815260040161163690612466565b60405180910390fd5b6002600081905550565b6001600081905550565b6000600160009054906101000a900473ffffffffffffffffffffffffffffffffffffffff16905081600160006101000a81548173ffffffffffffffffffffffffffffffffffffffff021916908373ffffffffffffffffffffffffffffffffffffffff1602179055508173ffffffffffffffffffffffffffffffffffffffff168173ffffffffffffffffffffffffffffffffffffffff167f8be0079c531659141344cd1fd0a4f28419497f9722a3daafe3b4186f6b6457e060405160405180910390a35050565b600033905090565b6000819050919050565b61173481611721565b82525050565b600060208201905061174f600083018461172b565b92915050565b600080fd5b61176381611721565b811461176e57600080fd5b50565b6000813590506117808161175a565b92915050565b60006020828403121561179c5761179b611755565b5b60006117aa84828501611771565b91505092915050565b6000819050919050565b6117c6816117b3565b81146117d157600080fd5b50565b6000813590506117e3816117bd565b92915050565b600073ffffffffffffffffffffffffffffffffffffffff82169050919050565b6000611814826117e9565b9050919050565b61182481611809565b811461182f57600080fd5b50565b6000813590506118418161181b565b92915050565b6000806040838503121561185e5761185d611755565b5b600061186c858286016117d4565b925050602061187d85828601611832565b9150509250929050565b600080600080608085870312156118a1576118a0611755565b5b60006118af878288016117d4565b94505060206118c087828801611832565b93505060406118d187828801611832565b92505060606118e287828801611771565b91505092959194509250565b6118f781611809565b82525050565b600060208201905061191260008301846118ee565b92915050565b60006020828403121561192e5761192d611755565b5b600061193c848285016117d4565b91505092915050565b7f4e487b7100000000000000000000000000000000000000000000000000000000600052602160045260246000fd5b6004811061198557611984611945565b5b50565b600081905061199682611974565b919050565b60006119a682611988565b9050919050565b6119b68161199b565b82525050565b60008115159050919050565b6119d1816119bc565b82525050565b600060e0820190506119ec600083018a6118ee565b6119f960208301896118ee565b611a06604083018861172b565b611a1360608301876119ad565b611a20608083018661172b565b611a2d60a08301856119c8565b611a3a60c08301846119c8565b98975050505050505050565b600060208284031215611a5c57611a5b611755565b5b6000611a6a84828501611832565b91505092915050565b6000819050919050565b6000611a98611a93611a8e846117e9565b611a73565b6117e9565b9050919050565b6000611aaa82611a7d565b9050919050565b6000611abc82611a9f565b9050919050565b611acc81611ab1565b82525050565b6000602082019050611ae76000830184611ac3565b92915050565b600082825260208201905092915050565b7f43616c6c6572206973206e6f74206f70657261746f72206f72206f776e657200600082015250565b6000611b34601f83611aed565b9150611b3f82611afe565b602082019050919050565b60006020820190508181036000830152611b6381611b27565b9050919050565b7f4d61746368206e6f7420696e205354414b454420737461746500000000000000600082015250565b6000611ba0601983611aed565b9150611bab82611b6a565b602082019050919050565b60006020820190508181036000830152611bcf81611b93565b9050919050565b7f57696e6e6572206d757374206265206120706c61796572000000000000000000600082015250565b6000611c0c601783611aed565b9150611c1782611bd6565b602082019050919050565b60006020820190508181036000830152611c3b81611bff565b9050919050565b7f4e487b7100000000000000000000000000000000000000000000000000000000600052601160045260246000fd5b6000611c7c82611721565b9150611c8783611721565b9250828202611c9581611721565b91508282048414831517611cac57611cab611c42565b5b5092915050565b6000604082019050611cc860008301856118ee565b611cd5602083018461172b565b9392505050565b611ce5816119bc565b8114611cf057600080fd5b50565b600081519050611d0281611cdc565b92915050565b600060208284031215611d1e57611d1d611755565b5b6000611d2c84828501611cf3565b91505092915050565b7f546f6b656e207472616e73666572206661696c65640000000000000000000000600082015250565b6000611d6b601583611aed565b9150611d7682611d35565b602082019050919050565b60006020820190508181036000830152611d9a81611d5e565b9050919050565b7f506c61796572732063616e6e6f74206265207a65726f20616464726573730000600082015250565b6000611dd7601e83611aed565b9150611de282611da1565b602082019050919050565b60006020820190508181036000830152611e0681611dca565b9050919050565b7f506c6179657273206d75737420626520646966666572656e7400000000000000600082015250565b6000611e43601983611aed565b9150611e4e82611e0d565b602082019050919050565b60006020820190508181036000830152611e7281611e36565b9050919050565b7f5374616b65206d75737420626520706f73697469766500000000000000000000600082015250565b6000611eaf601683611aed565b9150611eba82611e79565b602082019050919050565b60006020820190508181036000830152611ede81611ea2565b9050919050565b7f4d6174636820616c726561647920657869737473000000000000000000000000600082015250565b6000611f1b601483611aed565b9150611f2682611ee5565b602082019050919050565b60006020820190508181036000830152611f4a81611f0e565b9050919050565b6000606082019050611f6660008301866118ee565b611f7360208301856118ee565b611f80604083018461172b565b949350505050565b6000611f9382611721565b9150611f9e83611721565b9250828201905080821115611fb657611fb5611c42565b5b92915050565b7f4d617463682074696d656f7574206e6f74207265616368656400000000000000600082015250565b6000611ff2601983611aed565b9150611ffd82611fbc565b602082019050919050565b6000602082019050818103600083015261202181611fe5565b9050919050565b7f506c61796572203120726566756e64206661696c656400000000000000000000600082015250565b600061205e601683611aed565b915061206982612028565b602082019050919050565b6000602082019050818103600083015261208d81612051565b9050919050565b7f506c61796572203220726566756e64206661696c656400000000000000000000600082015250565b60006120ca601683611aed565b91506120d582612094565b602082019050919050565b600060208201905081810360008301526120f9816120bd565b9050919050565b7f4f70657261746f722063616e6e6f74206265207a65726f206164647265737300600082015250565b6000612136601f83611aed565b915061214182612100565b602082019050919050565b6000602082019050818103600083015261216581612129565b9050919050565b7f4d61746368206e6f7420696e2043524541544544207374617465000000000000600082015250565b60006121a2601a83611aed565b91506121ad8261216c565b602082019050919050565b600060208201905081810360008301526121d181612195565b9050919050565b7f4e6f74206120706c6179657220696e2074686973206d61746368000000000000600082015250565b600061220e601a83611aed565b9150612219826121d8565b602082019050919050565b6000602082019050818103600083015261223d81612201565b9050919050565b7f506c61796572203120616c7265616479207374616b6564000000000000000000600082015250565b600061227a601783611aed565b915061228582612244565b602082019050919050565b600060208201905081810360008301526122a98161226d565b9050919050565b7f506c61796572203220616c7265616479207374616b6564000000000000000000600082015250565b60006122e6601783611aed565b91506122f1826122b0565b602082019050919050565b60006020820190508181036000830152612315816122d9565b9050919050565b7f4f776e61626c653a206e6577206f776e657220697320746865207a65726f206160008201527f6464726573730000000000000000000000000000000000000000000000000000602082015250565b6000612378602683611aed565b91506123838261231c565b604082019050919050565b600060208201905081810360008301526123a78161236b565b9050919050565b7f4f776e61626c653a2063616c6c6572206973206e6f7420746865206f776e6572600082015250565b60006123e4602083611aed565b91506123ef826123ae565b602082019050919050565b60006020820190508181036000830152612413816123d7565b9050919050565b7f5265656e7472616e637947756172643a207265656e7472616e742063616c6c00600082015250565b6000612450601f83611aed565b915061245b8261241a565b602082019050919050565b6000602082019050818103600083015261247f81612443565b905091905056fea2646970667358221220c8cefddf31e0c8075bcb5423e816f72af6fa67e39594612bcdd3f0f823495daf64736f6c63430008110033",
  "linkReferences": {},
  "deployedLinkReferences": {}
}